:100000000C9463000C948B000C948B000C948B006C
:100010000C948B000C948B000C948B000C948B0034
:100020000C948B000C948B000C948B000C948B0024
:100030000C948B000C948B000C948B000C948B0014
:100040000C94590E0C948B000C94270E0C94010EFA
:100050000C948B000C948B000C948B000C948B00F4
:100060000C94A30E0C948B000000000025002800C7
:100070002B000000000023002600290000000008DB
:10008000000201000003040700000000000000005F
:1000900000000000240027002A00010204081020AC
:1000A000408001020408102001020408102004040A
:1000B0000404040404040202020202020303030310
:1000C00003033212E51611241FBECFEFD8E0DEBFC6
:1000D000CDBF25E0A4E8B1E001C01D92AE39B20762
:1000E000E1F711E0A0E0B1E0EAE2F4E302C005903C
:1000F0000D92A438B107D9F710E0C2E6D0E004C0F1
:100100002197FE010E941018C136D107C9F70E943D
:10011000CF130C94081A0C94000091E09093000205
:100120008093FF011092FE011092FD0108958CBD95
:100130009DBD089508950895AF92BF92CF92DF922A
:10014000EF92FF920F931F93CF93DF936C017B018C
:100150008B01040F151FEB015E01AE18BF08C0171D
:10016000D10759F06991D601ED91FC910190F08190
:10017000E02DC6010995892B79F7C501DF91CF9153
:100180001F910F91FF90EF90DF90CF90BF90AF90B5
:100190000895FC0144815581608171818DE492E074
:1001A0000C949C00FC01538D448D252F30E0842F4E
:1001B00090E0821B930B541710F0CF96089501978F
:1001C0000895FC01918D828D981761F0A28DAE0F7C
:1001D000BF2FB11D5D968C91928D9F5F9F73928F03
:1001E00090E008958FEF9FEF0895FC01918D828D2F
:1001F000981731F0828DE80FF11D858D90E00895FC
:100200008FEF9FEF0895FC01918D228D892F90E053
:10021000805C9F4F821B91098F73992708958DE40D
:1002200092E00E94030121E0892B09F420E0822F53
:100230000895FC01A48DA80FB92FB11DA35ABF4F7B
:100240002C91848D90E001968F739927848FA689D5
:10025000B7892C93A089B1898C91837080648C9329
:10026000938D848D981306C00288F389E02D8081D8
:100270008F7D80830895EF92FF920F931F93CF930A
:10028000DF93EC0181E0888F9B8D8C8D98131AC0D1
:10029000E889F989808185FF15C09FB7F894EE89B8
:1002A000FF896083E889F989808183708064808315
:1002B0009FBF81E090E0DF91CF911F910F91FF9060
:1002C000EF900895F62E0B8D10E00F5F1F4F0F7308
:1002D0001127E02E8C8D8E110CC00FB607FCFACFC3
:1002E000E889F989808185FFF5CFCE010E94190147
:1002F000F1CFEB8DEC0FFD2FF11DE35AFF4FF08294
:100300009FB7F8940B8FEA89FB8980818062CFCFF9
:10031000CF93DF93EC01888D8823B9F0AA89BB893C
:10032000E889F9898C9185FD03C0808186FD0DC027
:100330000FB607FCF7CF8C9185FFF2CF808185FF48
:10034000EDCFCE010E941901E9CFDF91CF91089541
:10035000833081F028F4813099F08230A9F008953B
:100360008730A9F08830C9F08430B1F480918000E2
:100370008F7D03C0809180008F77809380000895E7
:1003800084B58F7784BD089584B58F7DFBCF809130
:10039000B0008F778093B00008958091B0008F7D7A
:1003A000F9CFCF93DF93282F30E0F901E458FF4FC6
:1003B0008491F901E656FF4FD491F901E255FF4FC0
:1003C000C491CC23A1F081110E94A801EC2FF0E090
:1003D000EE0FFF1FEE58FF4FA591B491EC91ED2366
:1003E00081E090E009F480E0DF91CF91089580E012
:1003F00090E0FACF1F93CF93DF93282F30E0F901DD
:10040000E458FF4F8491F901E656FF4FD491F9016A
:10041000E255FF4FC491CC23A9F0162F81110E9401
:10042000A801EC2FF0E0EE0FFF1FE859FF4FA59158
:10043000B4918FB7F894EC91111108C0D095DE23D8
:10044000DC938FBFDF91CF911F910895DE2BF8CF02
:1004500061E0809182050C94FA01CF93DF9390E0E4
:10046000FC01E656FF4F249182559F4FFC01849179
:100470008823C9F090E0880F991FFC01E057FF4FD7
:10048000A591B491FC01E859FF4FC591D491611138
:100490000DC09FB7F8948C91209582238C9388810E
:1004A000282328839FBFDF91CF910895623051F4B4
:1004B0009FB7F8943C91822F809583238C93E88199
:1004C0002E2BEFCF8FB7F894EC912E2B2C938FBF60
:1004D000EACF3FB7F8948091E9019091EA01A091A9
:1004E000EB01B091EC0126B5A89B05C02F3F19F098
:1004F0000196A11DB11D3FBFBA2FA92F982F8827A4
:10050000BC01CD01620F711D811D911D42E0660F7E
:10051000771F881F991F4A95D1F708958F929F9250
:10052000AF92BF92CF92DF92EF92FF926B017C016C
:100530000E9469024B015C01C114D104E104F10481
:10054000B9F00E946902681979098A099B09683E15
:1005500073408105910580F321E0C21AD108E108BA
:10056000F10888EE880E83E0981EA11CB11CE4CF30
:10057000FF90EF90DF90CF90BF90AF909F908F90C3
:1005800008952091C501260F3327331F21323105ED
:10059000ECF420914702FC0190E080E0243069F007
:1005A00082E00895A091C5012191AC014B555E4FA9
:1005B000A40FB52FB11D2C930196861798F3809147
:1005C000C501680F6093C50180E0089581E008953A
:1005D0001092470281E0809326021092210261E08E
:1005E00082E10E94FA0161E083E10E94FA01E9EBF5
:1005F000F0E080818E7F808380818D7F808388E49E
:100600008093B80085E48093BC000895CF93DF9376
:1006100091E09093A4018823B9F0C091B800D091E3
:10062000BA008091BC008A7B8093BC0060E082E1CC
:100630000E94FA0160E083E10E94FA010E94E80250
:10064000D093BA00C093B800DF91CF910895CF92B4
:10065000DF92EF92FF920F931F93CF93DF93D82FE8
:10066000C62F613208F098C00E9469026B017C01BC
:100670008091470281116BC081E080934702809393
:1006800026029FEF90932502109224029C0F9093D4
:1006900023028093220280912202DD0FD82BD09377
:1006A000220280912102813009F078C0109221024B
:1006B0000E9469026B017C01809122028093BB0041
:1006C0008091490290914A02A0914B02B0914C0254
:1006D000892B8A2B8B2BA1F00E9469020091490281
:1006E00010914A0220914B0230914C026C197D0905
:1006F0008E099F09061717072807390708F448C00D
:100700008091BC0083FDD8CF85EC8093BC000E9413
:1007100069026B017C0180914702813009F440C07D
:10072000809124028C1710F4C0912402E1E0F2E0E1
:10073000A7E2B2E080E08C1355C08C2FDF91CF91FF
:100740001F910F91FF90EF90DF90CF9008958091CF
:10075000490290914A02A0914B02B0914C02892B20
:100760008A2B8B2B09F484CF0E94690200914902E5
:1007700010914A0220914B0230914C026C197D0974
:100780008E099F09061717072807390708F070CF49
:10079000809148020E940603C0E0CFCF85EEB5CF1E
:1007A0008091490290914A02A0914B02B0914C0273
:1007B000892B8A2B8B2B09F4AECF0E946902009102
:1007C000490210914A0220914B0230914C026C195F
:1007D0007D098E099F09061717072807390708F0B2
:1007E0009ACFD6CF91919D938F5FA5CF0895E09139
:1007F000FC018091FB01E81730F4F0E0E95DFD4F6A
:10080000808190E008958FEF9FEF08959091FC0113
:100810008091FB012FEF3FEF981748F4E92FF0E0AC
:10082000E95DFD4F208130E09F5F9093FC01C9019D
:1008300008958091FB019091FC01891B990B08950B
:10084000CF92DF92EF92FF920F931F93CF93DF939C
:100850007C01CB018A0120910002222389F0EB0167
:100860006B01C40ED51ECC15DD0569F06991D70169
:10087000ED91FC910190F081E02DC7010995F3CF36
:10088000642F0E94C102C801DF91CF911F910F9187
:10089000FF90EF90DF90CF900895CF93DF931F925A
:1008A000CDB7DEB76983209100022223F9F02091B1
:1008B000FD01203258F021E030E0FC013383228337
:1008C00090E080E00F90DF91CF9108958091FE013C
:1008D000E82FF0E0EC57FE4F998190838F5F809373
:1008E000FE018093FD0181E090E0ECCF61E0CE015C
:1008F00001960E94C102F7CF682F8AEE92E00C9415
:100900004D04CF92DF92EF92FF920F931F93CF93FC
:10091000DF93D091FD0181E0D13208F09CC0C091FD
:10092000FF010E9469026B017C01809147028111E5
:100930006CC082E08093470281E0809326028FEFB3
:100940008093250210922402D0932302A4E8B1E000
:10095000E1E0F2E080E0D8138DC010922202809195
:100960002202CC0FC82BC093220280912102813039
:1009700009F084C0109221020E9469026B017C017F
:10098000809122028093BB008091490290914A029B
:10099000A0914B02B0914C02892B8A2B8B2BA1F09A
:1009A0000E9469020091490210914A0220914B0273
:1009B00030914C026C197D098E099F0906171707A3
:1009C0002807390708F442C08091BC0083FDD8CFC6
:1009D00085EC8093BC000E9469026B017C018091D0
:1009E0004702823009F44CC0809125028F3F09F400
:1009F00069C080912502803209F466C08091250289
:100A0000803309F463C084E026C08091490290914C
:100A10004A02A0914B02B0914C02892B8A2B8B2B5E
:100A200009F483CF0E9469020091490210914A02A1
:100A300020914B0230914C026C197D098E099F095F
:100A4000061717072807390708F06FCF809148026B
:100A50000E94060385E01092FE011092FD011092A3
:100A60000002DF91CF911F910F91FF90EF90DF90E7
:100A7000CF9008959D9191938F5F6DCF85EEA9CF13
:100A80008091490290914A02A0914B02B0914C0290
:100A9000892B8A2B8B2B09F4A2CF0E94690200912B
:100AA000490210914A0220914B0230914C026C197C
:100AB0007D098E099F09061717072807390708F0CF
:100AC0008ECFC4CF80E0C7CF82E0C5CF83E0C3CF55
:100AD00090E080E0089560E0FC0180810C94FA01D0
:100AE00061E0FC0183810C94FA0160E0FC018381E8
:100AF0000C94FA0108958EBD00000DB407FEFDCFE1
:100B00008EB50895CF92DF92EF92FF920F931F93CD
:100B1000CF93DF9300D000D01F92CDB7DEB78C010A
:100B2000E62FF0E086E0F595E7958A95E1F7EA5F34
:100B3000FE4F8081806889836F7360646A834B8312
:100B40003C832D83C8010E9475058FE590E00E94CB
:100B50009700CE0101967C016E0196E0C90ED11C72
:100B6000F70181917F010E947B05EC14FD04C1F720
:100B7000C8010F900F900F900F900F90DF91CF91C1
:100B80001F910F91FF90EF90DF90CF900C94700524
:100B9000CF92DF92EF92FF920F931F93CF93DF9349
:100BA000EC01062FE62FF0E096E0F595E7959A9593
:100BB000E1F7EA5FFE4F10811068CE010E947505D3
:100BC0008FE590E00E949700812F0E947B05802F87
:100BD0008F730E947B0513E0C12CD12C7601FE2C73
:100BE000ED2CDC2CCC248EEF0E947B05C82A115002
:100BF000B1F7CE010E947005C701B601DF91CF9118
:100C00001F910F91FF90EF90DF90CF900895CF92BA
:100C1000DF92EF92FF921F93CF93DF93EC01162F99
:100C20000E9475058FE590E00E949700812F8F7BD1
:100C30000E947B0513E0C12CD12C7601FE2CED2CFB
:100C4000DC2CCC248EEF0E947B05C82A1150B1F712
:100C5000CE010E947005C701B601DF91CF911F91AF
:100C6000FF90EF90DF90CF90089561E081E50E94C2
:100C700027031092FC018093FB010895CF93DF932B
:100C8000EC01862F40E050E060E87FE34C835D8319
:100C90006E837F83488759876A877B874C875D8708
:100CA0006E877F8740E050E86EE370E0488B598B99
:100CB0006A8B7B8B41E050E060E070E04C8B5D8B99
:100CC0006E8B7F8B8B8361E00E942D0261E08B81B4
:100CD0000E94FA0187E0888361E00E942D0261E0B2
:100CE00088810E94FA018FEF89838A83DF91CF91F7
:100CF0000895FC0101900020E9F73197AF01481BEE
:100D0000590BBC018DE492E00C949C008F929F9251
:100D1000AF92BF920F931F93CF93DF93CDB7DEB700
:100D2000A1970FB6F894DEBF0FBECDBF19A2423017
:100D300008F44AE08E010F5D1F4F842E912CB12CD8
:100D4000A12CA50194010E945D17E62FB901CA01EB
:100D5000EA30F4F4E05DD801EE938D01232B242BCF
:100D6000252B79F790E080E0109719F0CD010E94D3
:100D70007906A1960FB6F894DEBF0FBECDBFDF9106
:100D8000CF911F910F91BF90AF909F908F9008953A
:100D9000E95CE1CF4AE00C9486060C947906FC01EC
:100DA00080819181009711F00C94B21808950F93EF
:100DB0001F93CF93DF93EC0188819981009759F0BD
:100DC0002A813B812617370730F081E0DF91CF91F0
:100DD0001F910F9108958B016F5F7F4F0E943B1908
:100DE000009759F0998388831B830A832C813D8166
:100DF000232B59F7FC011082E8CF80E0E7CFEF9278
:100E0000FF920F931F93CF93DF93EC017B018A0135
:100E1000BA010E94D70628813981811114C0211599
:100E2000310519F0C9010E94B218198218821D8279
:100E30001C821B821A82CE01DF91CF911F910F91EC
:100E4000FF90EF9008951D830C83B701C9010E94A4
:100E5000011AF1CFFB0101900020E9F73197AF01B2
:100E6000461B570B0C94FF06AF92BF92CF92DF92B6
:100E7000EF92FF920F931F93CF93DF93EC015B01EF
:100E80006A0179012417350720F48D2D6901E42EBC
:100E9000F82E198218821B821A821D821C8250E051
:100EA00040E063E871E0CE010E94FF06D501149690
:100EB0000D911C91C016D106E8F4E016F10608F475
:100EC0008701D501ED91FC911197E00FF11FF080A2
:100ED00010826D917C916C0D7D1D61157105B1F0D5
:100EE000CE010E942A07F50180819181080F191F08
:100EF000D801FC92CE01DF91CF911F910F91FF900D
:100F0000EF90DF90CF90BF90AF9008958881998146
:100F1000009711F00E94B218198218821D821C825B
:100F20001B821A82E0CFEF92FF920F931F93CF9311
:100F3000DF9300D0CDB7DEB7EE24E3948DE492E0EA
:100F40000E940301892BD1F18DE492E00E94E1001F
:100F5000F82E89831A820091FA021091FB020F5F2A
:100F60001F4FB80186EF92E00E94D706882399F0C0
:100F70002091F6023091F7028091FA029091FB02E3
:100F8000BE016F5F7F4F820F931F0E94011A109363
:100F9000FB020093FA028091FA029091FB028436E0
:100FA000910530F063E871E086EF92E00E942A0735
:100FB0008AE0F812C3CFE092F601C0CF0F900F90F5
:100FC000DF91CF911F910F91FF90EF9008950E94B4
:100FD0000F0181110C949307089585ED8093BC0057
:100FE0008091490290914A02A0914B02B0914C022B
:100FF0000796A11DB11D23E0B695A79597958795F6
:101000002A95D1F72091BC0024FD03C0109247021D
:1010100008954091490250914A0260914B027091AB
:101020004C02452B462B472B69F30097A105B105D0
:1010300041F025E32A95F1F700000197A109B109D4
:10104000E1CF809148020C940603CF93DF93CDB794
:10105000DEB72C970FB6F894DEBF0FBECDBF81E58B
:101060000E948D0082E090E00E947C048AEE92E073
:101070000E9481040E9435068AEE92E00E940604D6
:101080009C0194E0359527959A95E1F72F703327C9
:10109000922F990F990F291B220F820F898381E5C7
:1010A0000E948D0083E090E00E947C048AEE92E032
:1010B0000E9481040E9435068AEE92E00E94060496
:1010C0009C0144E0359527954A95E1F72F70332729
:1010D000922F990F990F291B220F820F8A8381E586
:1010E0000E948D0084E090E00E947C048AEE92E0F1
:1010F0000E9481040E9435068AEE92E00E94060456
:101100009C0154E0359527955A95E1F72F703327C8
:10111000922F990F990F291B220F820F8B8381E544
:101120000E948D0086E090E00E947C048AEE92E0AE
:101130000E9481040E9435068AEE92E00E94060415
:1011400081508D8381E50E948D0085E090E00E94B2
:101150007C048AEE92E00E9481040E9435068AEEA9
:1011600092E00E9406049C0164E0359527956A95FB
:10117000E1F72F703327922F990F990F291B220F18
:10118000820F8C8381E50E948D0087E090E00E94B1
:101190007C048AEE92E00E9481040E9435068AEE69
:1011A00092E00E9406049C0174E0359527957A959B
:1011B000E1F72F703327922F990F990F291B220FD8
:1011C0008150280F2E8381E50E948D0088E090E0F9
:1011D0000E947C048AEE92E00E9481040E943506FF
:1011E0008AEE92E00E940604AC019C01E4E0359591
:1011F0002795EA95E1F72F703327822F880F880F04
:10120000281B822F880F840F90E08C599F4F98875E
:101210008F83CE0101960E94D6102C960FB6F894BB
:10122000DEBF0FBECDBFDF91CF9108958F929F9209
:10123000AF92BF92CF92DF92EF92FF920F931F93E4
:10124000CF93DF93CDB7DEB728970FB6F894DEBF04
:101250000FBECDBF7C018B018AEF91E00E94250873
:101260002CE1209FF001219FF00D1124E457FC4F49
:101270006087718782879387D70114968D909D90A0
:10128000AD90BC90179784869586A686B7861896EB
:101290008D909D90AD90BC901B97808A918AA28A78
:1012A000B38A1C968D909D90AD90BC901F97848AB8
:1012B000958AA68AB78A50968D909D90AD90BC90E5
:1012C0005397808E918EA28EB38E54968D909D9062
:1012D000AD90BC905797848E958EA68EB78E5896FB
:1012E0008D909D90AD90BC905B9780A291A2A2A2A0
:1012F000B3A21C96CD90DD90ED90FC901F9760936B
:101300003C0470933D0480933E0490933F04000F8F
:10131000111F000F111FF801E85CFB4F00851185BC
:10132000228533850C0D1D1D2E1D3F1D0087118745
:1013300022873387009158041091590420915A0450
:1013400030915B040D831E832F83388769837A83F2
:101350008B839C83CE0105960E948D108C01CE015B
:1013600001960E948D10FC018181D80111969C91FB
:101370009817D9F065E00E94021881E020E09111F1
:1013800080E0922F28960FB6F894DEBF0FBECDBF37
:10139000DF91CF911F910F91FF90EF90DF90CF9051
:1013A000BF90AF909F908F90089580E090E0EACF3B
:1013B0002F923F924F925F926F927F928F929F9265
:1013C000AF92BF92CF92DF92EF92FF920F931F9353
:1013D000CF93DF93CDB7DEB7C254D1090FB6F894DF
:1013E000DEBF0FBECDBF1C01E0908C03F0908D03DB
:1013F00023E030E050E040E0BC018E010F5F1F4F62
:10140000C8010E94340789819A81812C912C540152
:10141000009721F00E94E9164B015C01C8010E946F
:10142000CF06C701FF0CAA0BBB0B88159905AA05AF
:10143000BB0509F008C1D10114962D913C91159777
:101440002530310508F4FFC0ED91FC91309709F487
:10145000FAC08481882309F4F6C0863309F4CCC22B
:10146000F4F48133D1F1823309F407C10E942802D8
:1014700026E030E050E040E0B101C8010E943407AE
:10148000C8010E94C900C8010E94CF068EE791E002
:101490000E94790681E891E00E947906CAC08733EC
:1014A00009F49AC3863511F70E94280226E030E03D
:1014B00050E040E0B101C8010E943407C8010E9419
:1014C000C900C8010E94CF068BE691E00E94CD06BC
:1014D00089E791E00E94CD06ACC00E9428020CE88A
:1014E00013E0C12CD12C7601F80180849184A28470
:1014F000B38481149104A104B10409F48CC0448420
:1015000055846684778420893189428953892FA73D
:1015100038AB49AB5AAB24893589468957892BABFF
:101520003CAB4DAB5EAB208D318D428D538D2FABDF
:1015300038AF49AF5AAF248D358D468D578D2BAFBF
:101540003CAF4DAF5EAF20A131A142A153A1239684
:101550002CAF3DAF4EAF5FAF239726E030E050E0B9
:1015600040E0B101CE0101960E943407CE01019600
:101570000E94C900CE0101960E94CF064AE0C70131
:10158000B6010E9486068EE291E00E94CD06C5015A
:10159000B4010E94CA068EE291E00E94CD06C3010A
:1015A000B2010E94CA068EE291E00E94CD066FA5AC
:1015B00078A989A99AA90E94CA068EE291E00E94A0
:1015C000CD066BA97CA98DA99EA90E94CA068EE2B0
:1015D00091E00E94CD066FA978AD89AD9AAD0E94C9
:1015E000CA068EE291E00E94CD066BAD7CAD8DAD5A
:1015F0009EAD0E94CA068EE291E00E94CD0623961F
:101600006CAD7DAD8EAD9FAD23970E94CA0680E381
:1016100091E00E94CD06045E1F4FBFEFCB1ADB0A9C
:10162000EB0AFB0AE6E0CE16D104E104F10409F06E
:101630005BCF6AE070E080E090E00E948E0282E87A
:1016400095E00E946B05CE5BDF4F0FB6F894DEBFCE
:101650000FBECDBFDF91CF911F910F91FF90EF9003
:10166000DF90CF90BF90AF909F908F907F906F90C2
:101670005F904F903F902F90089547E050E0B10168
:10168000C8010E94340789819A81C12CD12C76012E
:10169000009721F00E94E9166B017C01C8010E94AD
:1016A000CF06C114D104E104F10409F4DFCE88E2CD
:1016B000D8011D928A95E9F78091600490916104A8
:1016C000A0916204B09163048C159D05AE05BF0521
:1016D00008F0CCCE0097A105B10509F0C7C0C092B3
:1016E0006004D0926104E0926204F092630481E0AD
:1016F00090E0A0E0B0E040915C0450915D04609106
:101700005E0470915F04840F951FA61FB71F409160
:101710006404509165046091660470916704403AD6
:1017200055406105710508F0D5C0803AF5E09F0786
:10173000A105B10508F0BDC08093640490936504D1
:10174000A0936604B093670480935C0490935D0457
:10175000A0935E04B0935F0480905C0490905D045D
:10176000092C000CAA08BB08C501B40123E030E035
:1017700040E050E00E945D17203E61E0360710F027
:101780002FEF3FEF69018FEFC81AD80A0D2C000C1C
:10179000EE08FF0827E0CC0CDD1CEE1CFF1C2A9590
:1017A000D1F7C501B40123E030E040E050E00E94F1
:1017B0005D179B01AC01A8E2B0E00E94A517C60E20
:1017C000D71EE81EF91E5E0199E1A90EB11CA1E029
:1017D000CA16D104EA06F10408F083C0BE2DB06534
:1017E0009B2E8B2F0E948D00A0918704B0918804BE
:1017F00077276F2D5E2D4D2DED91FC911197019066
:10180000F081E02DBA01CD01099580918704909176
:101810008804DC01ED91FC910190F081E02D6C2DAC
:10182000099580918704909188040E94810464E066
:10183000892D0E9427031092FC018093FB01809167
:10184000870490918804DC01ED91FC910084F1857E
:10185000E02D0995912C812C412C512C3201892BA2
:1018600009F047C0412C512C320169C0A7019601F3
:10187000281B390B4A0B5B0BCA01B9012CE231E082
:1018800040E050E00E945D17C0926004D092610475
:10189000E0926204F0926304C901805A9540803658
:1018A0009A4F08F4E3CD2F5F3F4FC901B0E0A0E0AD
:1018B00022CF40EA55E060E070E04093640450932A
:1018C00065046093660470936704805A9540A1098B
:1018D000B1093ACF803A25E09207A105B105A8F7F2
:1018E00033CF83E391E00E947906892B09F476CF08
:1018F000B9CF8091870490918804DC01ED91FC912F
:101900000284F385E02D0995092E000CAA0BBB0B70
:101910000097A105B10561F0082C04C0880F991F3C
:10192000AA1FBB1F0A94D2F7482A592A6A2A7B2A7F
:10193000B8E08B0E911CE0E28E169104D1F6D8012E
:101940004D925D926D927D928D01B4E0CB0ED11CD3
:10195000E11CF11CA016B10609F039CF0E94280243
:1019600026E030E050E040E0B101CE0189960E94CF
:101970003407CE0189960E94C900CE0189960E9443
:10198000CF0669817A818B819C810E94CA068EE292
:1019900091E00E94CD066D817E818F8198850E94A5
:1019A000CA068EE291E00E94CD0669857A858B8514
:1019B0009C850E94CA068EE291E00E94CD066D854C
:1019C0007E858F8598890E94CA068EE291E00E94EA
:1019D000CD0669897A898B899C890E94CA068EE224
:1019E00091E00E94CD066D897E898F89988D0E9435
:1019F000CA0680E391E06ECD47E050E0B101C80136
:101A00000E94340789819A81C12CD12C76010097DC
:101A100021F00E94E9166B017C01C8010E94CF06EB
:101A2000C114D104E104F10409F420CDC982DA82A1
:101A3000EB82FC82C8010E94C20FFC01818092806F
:101A4000B380A480C580E680F780708081E50E9425
:101A50008D0082E090E00E947C048AE0D82E872DE1
:101A60006D2D0E94F617682F660F680F660F670DC1
:101A70008AEE92E00E944D048AEE92E00E94810478
:101A800081E50E948D0083E090E00E947C04882D17
:101A90006D2D0E94F617682F660F680F660F680D90
:101AA0008AEE92E00E944D048AEE92E00E94810448
:101AB00081E50E948D0084E090E00E947C04892DE5
:101AC0006D2D0E94F617682F660F680F660F690D5F
:101AD0008AEE92E00E944D048AEE92E00E94810418
:101AE00081E50E948D0086E090E00E947C0461E028
:101AF0006A0D8AEE92E00E944D048AEE92E00E9406
:101B0000810481E50E948D0085E090E00E947C04C4
:101B10008B2D6D2D0E94F617682F660F680F660FCC
:101B20006B0D8AEE92E00E944D048AEE92E00E94D4
:101B30008104C39481E50E948D0087E090E00E94BB
:101B40007C048C2D6D2D0E94F617682F660F680F90
:101B5000660F6C0D8AEE92E00E944D048AEE92E0D0
:101B60000E94810481E50E948D0088E090E00E943F
:101B70007C04C7018459984F64E670E00E943517D1
:101B8000282F6D2D0E94F617682F660F680F660FBD
:101B9000620F8AEE92E00E944D048AEE92E00E946B
:101BA00081048AEE92E00E9481040E94280226E0CD
:101BB00030E050E040E0B101C8010E943407C801A4
:101BC0000E94C900C8010E94CF0689EF91E00E94DF
:101BD00025080E94CA067CCC0E94280226E030E03C
:101BE00050E040E0B101C8010E943407C8010E94E2
:101BF000C900C8010E94CF0689EF91E00E94250824
:101C0000F6CE1F920F920FB60F9211242F933F938F
:101C10004F935F936F937F938F939F93AF93BF93F4
:101C2000EF93FF938DE492E00E941901FF91EF91F1
:101C3000BF91AF919F918F917F916F915F914F91E4
:101C40003F912F910F900FBE0F901F9018951F92EC
:101C50000F920FB60F9211242F938F939F93EF93B0
:101C6000FF93E0915D02F0915E028081E09163025A
:101C7000F091640282FD1BC09081809166028F5FAB
:101C80008F7320916702821741F0E0916602F0E0C5
:101C9000E35BFD4F958F80936602FF91EF919F91DB
:101CA0008F912F910F900FBE0F901F9018958081EC
:101CB000F4CF1F920F920FB60F9211242F933F93E0
:101CC0008F939F93AF93BF938091F2019091F30113
:101CD000A091F401B091F5013091E80123E0230FC8
:101CE0002D3758F50196A11DB11D2093E801809371
:101CF000F2019093F301A093F401B093F501809168
:101D0000E9019091EA01A091EB01B091EC010196FB
:101D1000A11DB11D8093E9019093EA01A093EB010D
:101D2000B093EC01BF91AF919F918F913F912F9113
:101D30000F900FBE0F901F90189526E8230F029664
:101D4000A11DB11DD2CF1F920F920FB60F92112479
:101D50002F933F934F935F936F937F938F939F93B3
:101D6000AF93BF93EF93FF938091B900887F803644
:101D700009F44AC0F0F5883209F4A7C018F580319B
:101D800009F49BC0B8F4882309F4F9C0883009F439
:101D900094C0FF91EF91BF91AF919F918F917F91EF
:101DA0006F915F914F913F912F910F900FBE0F90C8
:101DB0001F901895883109F488C0803251F78093BC
:101DC000250214C0803409F49DC040F48033B9F377
:101DD0008833F9F68093250285ECB0C0803509F48C
:101DE00085C0883509F496C0883499F60E94ED07BD
:101DF000D0CF883909F48CC038F5883729F050F4F1
:101E0000883611F0803729F683E0809347021092DC
:101E1000E70157C0883809F47BC0803919F0803851
:101E200009F0B7CF8091E701803208F071C0E091EE
:101E3000E70181E08E0F8093E7018091BB00F0E025
:101E4000E953FE4F80833DC0803B39F0E0F4803A97
:101E500009F479C0883A09F09CCF84E08093470266
:101E60001092C6011092C501E091ED01F091EE01D2
:101E700009958091C50181110FC081E08093C50152
:101E80001092A50109C0803C09F4A6CF883C09F452
:101E9000A3CF883B09F07DCFE091C60181E08E0F92
:101EA0008093C601F0E0EB55FE4F80818093BB002C
:101EB0009091C6018091C50129C080912202809332
:101EC000BB0085EC8093BC0064CF9091240280918C
:101ED0002302981758F5E091240281E08E0F809339
:101EE0002402F0E0EF5FFD4F8081E9CFE091240212
:101EF00081E08E0F809324028091BB00F0E0EF5FC1
:101F0000FD4F808390912402809123029817C8F29C
:101F100085E8D8CFE091240281E08E0F80932402DF
:101F20008091BB00F0E0EF5FFD4F8083809126023F
:101F300081115CCF81E08093210284EA8093BC0010
:101F40001092470226CF85EC8093BC001092470286
:101F50008091E701803230F4E091E701F0E0E9534D
:101F6000FE4F10826091E70170E0E091EF01F09187
:101F7000F00187EC91E009951092E7010ACF1092E9
:101F8000250234CF68E875E00E94C90F88E895E023
:101F90000895A8E0B0E0EFECFFE00C94BA178B01D5
:101FA000FC01608171818281938120E831E541E00B
:101FB00050E00E945D1769017A012CE330E040E0B7
:101FC00050E00E947F1729833A834B835C83898189
:101FD0009A81AB81BC81F80160836CE370E00E9460
:101FE0004917DC01F801A1836283C601069667E008
:101FF00070E00E94351784832DEA3EE840E050E00F
:10200000C701B6010E947F1729833A836D837E83BF
:102010008F83988789819A8124E6289F6001299F70
:10202000D00C11246D817E818F81988525EB35E060
:1020300040E050E00E947F1729833A836D837E83BE
:10204000E980FA80EE0CFF1CEE0CFF1CEC0CFD1C72
:102050008D819E81F5E6EF16F104A0F1019621E055
:1020600030E0A90144595E4F4817590760F46DE606
:1020700071E0821B930B0E944917DC01E60EF71EEC
:10208000CD0130E020E044E6E40EF11CF801F782D7
:10209000E68291878087255C3F4F82179307E0F4A3
:1020A0006FE170E00E944917DC01F8016583A383AA
:1020B000F8011386128683818F5F83832896E8E078
:1020C0000C94D61751E040E024E6E216F10409F43E
:1020D00050E0252F342FC5CF69E970E0821B930BA8
:1020E0000E944917DC01262F220F220FF22EF60E36
:1020F0006DE370E0CD010E944917DC01E62EEE0C85
:102100006FE170E0CD010E944917DC0122E0260F4B
:102110002F0D2E0DF8012583CACF68E875E00E94C7
:10212000941088E895E00895A4E0B0E0EAE9F0E1D1
:102130000C94BA176C017B01E0919805F091990518
:102140000FEF1FEF309721F064E975E009958C01DE
:10215000F60180819181A281B381409194055091D3
:1021600095056091960570919705840F951FA61FA0
:10217000B71F1016110684F089839A83AB83BC8342
:10218000B701CE0101960E94C90FF701138702879C
:102190002496E8E00C94D617A801012E000C660BDB
:1021A000770B840F951FA61FB71FE6CFA4E0B0E002
:1021B000ECEDF0E10C94BE178C010E942D116983A7
:1021C0007A838B839C83F8018285938597FF0EC069
:1021D000E0919805F0919905309741F064E975E038
:1021E000CE0101960995F80193878287F8018285CF
:1021F00093851816190684F4092E000CAA0BBB0B44
:1022000049815A816B817C81481B590B6A0B7B0B7E
:1022100049835A836B837C8389819A81AB81BC819A
:1022200040919405509195056091960570919705A0
:10223000841B950BA60BB70B89839A83AB83BC8356
:10224000B801CE0101960E94941069817A818B8138
:102250009C812496E4E00C94DA178F929F92AF92BF
:10226000BF92CF92DF92EF92FF92CF93DF93EC0178
:10227000EE81FF817F0124E6E21AF108D12CC12C06
:10228000B1F0CF01855691096C0197FF03C023E09F
:10229000C20ED11CD594C794D594C7946CE97FEF36
:1022A0000E944917C60ED71E8FEFC81AD80A2DE60E
:1022B00031E0D7010E949E174601DD0CAA08BB0839
:1022C000860E971EA81EB91E8B81082E000C990B36
:1022D0007C0121E0E21AF1082D8122300CF049C086
:1022E000222321F07C012EE1E20EF11C6701FF0C9C
:1022F000EE08FF08C80CD91CEA1CFB1CAA810A2E98
:10230000000CBB0B20E13EE00E949E174B015C01DC
:10231000A9810A2E000CBB0B2CE330E00E949E1713
:10232000AB01BC01480D591D6A1D7B1D8881082E1B
:10233000000C990BAA0BBB0B4C015D01840E951E82
:10234000A61EB71EA701960160E871E581E090E046
:102350000E942517680D791D8A1D9B1DDF91CF9165
:10236000FF90EF90DF90CF90BF90AF909F908F90B5
:102370000895CF018459984F0E94E911C82ED12C9D
:102380008BE3C80ED11CCE0CDF1C8D81082E000CF7
:10239000990B0297853091051CF029E9C20ED11CDA
:1023A00065E070E00E9449179C0197FF02C02F5F13
:1023B0003F4F359527959DE3929F7001939FF00CB9
:1023C0001124EC0CFD1C80FF91CF8FE1E80EF11C75
:1023D0008DCF9C0123703327232B59F464E670E0E2
:1023E0000E944917892B39F46370772781E0672BA6
:1023F00019F080E0089581E008959C0128553F4F31
:10240000FC011082118212821382148215821682BC
:1024100017821086118612861386148615861686F4
:102420001786108A118A128A138A148A158A168AC4
:10243000178A108E118E128E138E7C96E217F30778
:1024400001F71082118212821382FC01E455FF4FC2
:102450008C539F4F1192119211921192E817F90724
:10246000C9F70895CF92DF92EF92FF920F931F93D7
:10247000CF93DF931092500210924F0288EE93E0B8
:10248000A0E0B0E08093510290935202A0935302D7
:10249000B09354022EE031E030934E0220934D026F
:1024A00025EC30E030935A022093590224EC30E0BE
:1024B00030935C0220935B0220EC30E030935E02AC
:1024C00020935D0221EC30E03093600220935F02A4
:1024D00022EC30E0309362022093610226EC30E07F
:1024E0003093640220936302109266021092670296
:1024F00010926802109269021092ED021092EC02A2
:102500008093EE029093EF02A093F002B093F10259
:1025100080E291E09093EB028093EA0261E086E032
:102520000E942D0286E090E09093840480938304BF
:1025300061E084E00E942D0284E090E090938204A8
:102540008093810460E08EE00E942D0260E08FE0C5
:102550000E942D0260E080E10E942D0260E081E196
:102560000E942D028EE090E0909374048093730497
:102570008FE090E0909376048093750480E190E082
:10258000909378048093770481E190E090937A04AB
:102590008093790461E085E00E942D0285E090E05F
:1025A00090936E0480936D0480E092ECA1E0B0E023
:1025B00080936F0490937004A0937104B09372049D
:1025C00060E082E00E942D0282E090E090936C0433
:1025D00080936B0461E083E00E942D0283E090E031
:1025E00090936A048093690484E993E00E94FD114A
:1025F000E4E4F3E08FEF40E050E060E87FE3C12CDB
:1026000090E8D92E9EE3E92EF12C01E010E020E0C5
:1026100030E0808381838283838344835583668310
:10262000778340875187628773874487558766879A
:102630007787C08AD18AE28AF38A048B158B268B2E
:10264000378B789693E0EC38F90719F768E08CE25D
:1026500093E00E943E0669E084E193E00E943E061A
:102660006AE08CEF92E00E943E061092F702109210
:10267000F6021092F9021092F8021092FB021092E8
:10268000FA0250E040E063E871E086EF92E00E94D9
:10269000FF0661E085E00E942D0261E084E00E9477
:1026A0002D02C4E0D0E0D0938E04C0938D0461E08D
:1026B00086E00E942D0206E010E01093860400934D
:1026C000850461E083E00E942D0283E090E0909316
:1026D000900480938F0461E086E00E942D021093A5
:1026E00092040093910460E082E00E942D0282E057
:1026F00090E0909394048093930460E08EE00E94B5
:102700002D0260E08FE00E942D0260E080E10E94D7
:102710002D0260E081E10E942D028EE090E0909316
:102720009604809395048FE090E0909398048093B2
:10273000970480E190E090939A048093990481E15A
:1027400090E090939C0480939B0461E084E00E945D
:102750002D02D093A404C093A30461E085E00E94FD
:102760002D0285E090E0909383058093820580E0C0
:1027700092ECA1E0B0E08093840590938505A0934E
:102780008605B09387058DEA94E0DF91CF911F9184
:102790000F91FF90EF90DF90CF900C94FD11CF93AD
:1027A000DF93CDB7DEB7E4970FB6F894DEBF0FBE68
:1027B000CDBF789484B5826084BD84B5816084BDCA
:1027C00085B5826085BD85B5816085BD80916E00CF
:1027D000816080936E001092810080918100826000
:1027E000809381008091810081608093810080913D
:1027F00080008160809380008091B100846080932C
:10280000B1008091B00081608093B00080917A0027
:10281000846080937A0080917A00826080937A004D
:1028200080917A00816080937A0080917A0080683C
:1028300080937A001092C100C0906F04D090700411
:10284000E0907104F0907204E0915D02F0915E02FC
:1028500082E08083C11481EED806E104F104A1F086
:1028600060E079E08DE390E0A70196010E945D179A
:1028700021503109410951095695479537952795BA
:10288000211590E13907A8F0E0915D02F0915E0218
:10289000108260E874E88EE190E0A70196010E9442
:1028A0005D172150310941095109569547953795D2
:1028B0002795E0915902F0915A023083E0915B0232
:1028C000F0915C02208310926502E0916102F09128
:1028D000620286E08083E0915F02F0916002808175
:1028E00080618083E0915F02F09160028081886066
:1028F0008083E0915F02F091600280818068808334
:10290000E0915F02F091600280818F7D80838DE68F
:1029100094E00E946B051092FC011092FB01109252
:10292000FD010E94E8028AE990E09093EE01809315
:10293000ED018BE990E09093F0018093EF0181E548
:102940000E948D008AEE92E00E94810460E084E0A3
:102950000E94FA018AEE92E090937C0480937B04BB
:102960001092FE011092FD010E94E8028CE080931B
:10297000B80004E413E038E0B32E47E0942EAA2414
:10298000AA9458EBE52E50E0F52E64EAC62E60E0DE
:10299000D62ED8011396BC9261E08B2D0E942D0299
:1029A00061E0F80183810E94FA01D8019C9261E004
:1029B00087E00E942D0261E0F80180810E94FA0107
:1029C000D8011196AC9211971296AC9262E08CE00D
:1029D0000E942D02C8010E9475058FB6F89480915F
:1029E000F101811125C0F7018491F6019491E82F3E
:1029F000F0E0EE0FFF1FE057FF4FA591B4918C91CF
:102A0000982321F461E08AE00E94FA0161E08AE003
:102A10000E942D028CB580618CBD8CB580648CBD0C
:102A200061E08DE00E942D0261E08BE00E942D02AA
:102A30008091F1018F5F8093F1018FBE8FE590E06F
:102A40000E949700D8018C918F3F19F061E00E949D
:102A5000FA018FEF0E947B058FEF0E947B058FEFBD
:102A60000E947B058EEF0E947B05C8010E947005C5
:102A70002AEA3EE142E050E060E4C8010E9482059B
:102A8000C8010E9475058FE590E00E94970085EDD2
:102A90000E947B05C8010E94700564EF71E080E030
:102AA00090E00E948E02B394085E1F4FBBE0BB1201
:102AB00070CF60E0809183040E94FA0168EE73E0B9
:102AC00080E090E00E948E0261E0809183040E9489
:102AD000FA0164EF71E080E090E00E948E0264E60B
:102AE00070E086EF92E00E94D70680916B040E940E
:102AF000D10121E030E0019711F030E020E0309387
:102B00008F0320938E032FB7F8948091F201909158
:102B1000F301A091F401B091F5012FBF80939003D0
:102B200090939103A0939203B093930380917304C5
:102B30000E94D10131E020E0019709F030E0032F3D
:102B4000122F809175040E94D101019709F402604F
:102B5000809177040E94D101019709F4046080916B
:102B600079040E94D101019709F4086010938D0344
:102B700000938C038091F7019091F80163E070E07D
:102B80000E9449171C01E8E1E89F8001E99F100DB0
:102B900011240C5B1C4F67E1C8010E94C80587FF28
:102BA000D4C067E4C8010E94C8056B017C0166E4DB
:102BB000C8010E94C80569A77AA78BA79CA76CE4E7
:102BC000C8010E94C8056DA37EA38FA398A765E4E2
:102BD000C8010E9407066DA77EA78FA798AB6BE47C
:102BE000C8010E94070669A37AA38BA39CA36EE485
:102BF000C8010E94070669AB7AAB8BAB9CAB60E562
:102C0000C8010E9407064B015C0165E5C8010E94EE
:102C1000C8052B013C0169E5C8010E94C8056D8FFC
:102C20007E8F8F8F98A36BE5C8010E94C80520E0B6
:102C300030E040E850E067E1C8010E948205220CC4
:102C4000331CCD82DE82EF82F88689A59AA5ABA5DA
:102C5000BCA589879A87AB87BC878DA59EA5AFA5A4
:102C6000B8A98D879E87AF87B88B89A99AA9ABA988
:102C7000BCA9898B9A8BAB8BBC8B4D8A5E8A6F8A81
:102C8000788E198E1A8E1B8E1C8E96E029163104B2
:102C9000C8F4B101CE0101960E941609019791F482
:102CA00010923C0410923D0410923E0410923F0496
:102CB000E0E4F4E01192119211921192A4E0E8354F
:102CC000FA07C1F7B1016F5F7F4FCD82DE82EF82DD
:102CD000F8868DA19EA1AFA1B8A589879A87AB87F9
:102CE000BC8789A19AA1ABA1BCA18D879E87AF8724
:102CF000B88B898A9A8AAB8ABC8A8D8D9E8DAF8D5E
:102D0000B8A18D8B9E8BAF8BB88F198E1A8E1B8EB0
:102D10001C8E66307105C8F4CE0101960E9416091A
:102D2000019799F410923C0410923D0410923E04D5
:102D300010923F04E0E4F4E011921192119211928A
:102D4000A8E5B4E0AE17BF07B9F78091F601882374
:102D500029F11A8219821C821B821E821D826091B7
:102D6000F6027091F7026115710541F04091FA0287
:102D70005091FB02CE0101960E94FF06CE01019602
:102D80000E94D809CE0101960E94CF0663E871E047
:102D900086EF92E00E942A071092F6018091F701D7
:102DA0009091F80101969093F8018093F70161E00A
:102DB00070E080E090E00E948E020E940F01882364
:102DC00009F493CE0E94930790CE86EF92E00C9484
:102DD000CF061F93FC0199278827BC01E894119125
:102DE0001032E9F3193010F01E30C8F31B3251F0E5
:102DF0001D3249F4689406C00E941017610F711DBE
:102E0000811D911D119110531A30B0F33EF490952D
:102E10008095709561957F4F8F4F9F4F1F910895BB
:102E2000592F482F372F262F660F771F881F991F7E
:102E3000660F771F881F991F620F731F841F951FCE
:102E4000660F771F881F991F0895DB018F939F934B
:102E50000E94A517BF91AF91A29F800D911DA39FC6
:102E6000900DB29F900D11240895AA1BBB1B51E138
:102E700007C0AA1FBB1FA617B70710F0A61BB70BEA
:102E8000881F991F5A95A9F780959095BC01CD018F
:102E9000089597FB072E16F4009407D077FD09D00C
:102EA0000E94351707FC05D03EF4909581959F4F01
:102EB0000895709561957F4F0895A1E21A2EAA1B7F
:102EC000BB1BFD010DC0AA1FBB1FEE1FFF1FA217DA
:102ED000B307E407F50720F0A21BB30BE40BF50BD7
:102EE000661F771F881F991F1A9469F76095709560
:102EF000809590959B01AC01BD01CF010895052EF1
:102F000097FB1EF400940E94961757FD07D00E946D
:102F10005D1707FC03D04EF40C949617509540951E
:102F2000309521953F4F4F4F5F4F08959095809575
:102F3000709561957F4F8F4F9F4F08950E94E717BF
:102F4000B7FF0895821B930B08950E94E717A59F72
:102F5000900DB49F900DA49F800D911D1124089594
:102F60002F923F924F925F926F927F928F929F9299
:102F7000AF92BF92CF92DF92EF92FF920F931F9387
:102F8000CF93DF93CDB7DEB7CA1BDB0B0FB6F89438
:102F9000DEBF0FBECDBF09942A88398848885F8478
:102FA0006E847D848C849B84AA84B984C884DF80E9
:102FB000EE80FD800C811B81AA81B981CE0FD11DCD
:102FC0000FB6F894DEBF0FBECDBFED010895A29FEE
:102FD000B001B39FC001A39F700D811D1124911DED
:102FE000B29F700D811D1124911D0895991B79E0E8
:102FF00004C0991F961708F0961B881F7A95C9F789
:103000008095089587FB082E062687FD819567FD2C
:1030100061950E94F6170EF4919507FC819508952D
:10302000EE0FFF1F0590F491E02D09940F931F936D
:10303000CF93DF938230910510F482E090E0E0912D
:103040009C05F0919D0530E020E0B0E0A0E03097D5
:1030500099F42115310509F44AC0281B390B243095
:103060003105D8F58A819B816115710589F1FB01D4
:1030700093838283FE0111C04081518102811381BB
:1030800048175907E0F04817590799F4109761F06D
:1030900012960C93129713961C933296CF01DF91E0
:1030A000CF911F910F91089500939C0510939D055A
:1030B000F4CF2115310551F04217530738F0A9011B
:1030C000DB019A01BD01DF01F801C1CFEF01F9CFAA
:1030D00090939D0580939C05CDCFFE01E20FF31FD9
:1030E000819391932250310939832883D7CF20913E
:1030F0009A0530919B05232B41F4209102013091D8
:10310000030130939B0520939A0520910001309193
:1031100001012115310541F42DB73EB7409104015D
:1031200050910501241B350BE0919A05F0919B0508
:10313000E217F307A0F42E1B3F0B2817390778F08E
:10314000AC014E5F5F4F2417350748F04E0F5F1FED
:1031500050939B0540939A05819391939FCFF0E004
:10316000E0E09CCFCF93DF930097E9F0FC0132972A
:1031700013821282A0919C05B0919D05ED0130E073
:1031800020E01097A1F420813181820F931F2091BC
:103190009A0530919B052817390709F061C0F09313
:1031A0009B05E0939A05DF91CF910895EA01CE1730
:1031B000DF07E8F54A815B819E0141155105B1F7B2
:1031C000E901FB83EA8349915991C40FD51FEC179C
:1031D000FD0761F4808191810296840F951FE901BA
:1031E00099838883828193819B838A83F0E0E0E0E6
:1031F00012968D919C9113970097B9F52D913C9162
:103200001197CD010296820F931F20919A0530915C
:103210009B052817390739F6309751F510929D050F
:1032200010929C05B0939B05A0939A05BCCFD383C5
:10323000C28340815181840F951FC817D90761F45B
:103240004E5F5F4F88819981480F591F518340839A
:103250008A819B81938382832115310509F0B0CF48
:10326000F0939D05E0939C059ECFFD01DC01C0CF4E
:1032700013821282D7CFB0E0A0E0E1E4F9E10C9430
:10328000B2178C01009751F4CB010E9416188C01E3
:10329000C801CDB7DEB7E0E10C94CE17FC01E60F14
:1032A000F71F9C0122503109E217F30708F49DC073
:1032B000D901CD91DC911197C617D70798F0C53089
:1032C000D10530F3CE0104978617970708F3C61B84
:1032D000D70B2297C193D1936D937C93CF010E941A
:1032E000B218D6CF5B01AC1ABD0A4C018C0E9D1EE4
:1032F000A0919C05B0919D05512C412CF12CE12C05
:10330000109731F580919A0590919B058815990544
:1033100009F05CC04616570608F058C080910001BD
:1033200090910101009741F48DB79EB7409104013F
:1033300050910501841B950BE817F90708F055C05B
:10334000F0939B05E0939A05F90171836083A0CF08
:103350008D919C91119712966C90129713967C9078
:103360001397A815B90559F56C0142E0C40ED11C9C
:10337000CA14DB0420F1AC014A195B09DA01129688
:10338000159780F06282738251834083D9016D93D7
:103390007C93E114F10471F0D7011396FC93EE9342
:1033A000129776CF22968C0F9D1FF901918380830F
:1033B000F301EFCFF0939D05E0939C0569CF48168C
:1033C000590608F42C017D01D3019ACFCB010E944C
:1033D00016187C01009749F0AE01B8010E94F81957
:1033E000C8010E94B218870153CF10E000E050CF0F
:1033F000FB01DC0102C001900D9241505040D8F712
:103400000895FB01DC0101900D920020E1F7089581
:1034100010E0C2E6D0E004C0FE010E941018219620
:0A342000C336D107C9F7F894FFCFB7
:10342A0000009E05800000101112000000003B0100
:10343A009C00D20088010301E100F50000000000B1
:10344A004D0420046805F60319040604F7033B003B
:10345A003B0A000A3C41543234433531323E20455E
:10346A0072726F72202D20416464726573732067D3
:10347A006976656E20746F6F206C617267652028AB
:10348A0030202D203635353336290056312E30621C
:10349A002059323031303034003B4F4B0A004E470E
:0434AA00000D0A0007
:00000001FF
